:020000040800F2
:1000000000280020191C0008711B0008771B00083D
:100010007D1B0008831B0008891B000800000000EE
:100020000000000000000000000000008F1B00081E
:100030009B1B000800000000A71B0008B31B000862
:10004000611C0008611C0008611C0008611C00089C
:10005000611C0008611C0008611C0008611C00088C
:10006000611C0008611C0008611C0008611C00087C
:10007000611C0008611C0008611C0008611C00086C
:10008000611C0008611C0008611C0008611C00085C
:10009000611C0008611C0008611C0008611C00084C
:1000A000611C0008611C0008611C0008611C00083C
:1000B000C11B0008611C000800000000611C000852
:1000C000611C00080000000000000000611C000826
:1000D00000000000611C0008611C00080000000016
:1000E000611C0008611C0008611C00080000000081
:1000F0000000000000000000000000000000000000
:0C01000000000000000000005FF808F1A3
:10010C0010B5054C237833B9044B13B10448AFF345
:10011C0000800123237010BD780000200000000037
:10012C00B832000808B5034B1BB103490348AFF3C1
:10013C00008008BD000000007C000020B8320008E0
:10014C007BB972B90029BEBF00204FF0004106E018
:10015C0008BF00281CBF6FF000414FF0FF3000F0CB
:10016C00A1B9ADF1080C6DE904CE002909DB002B17
:10017C001ADB00F035F8DDF804E0DDE9022304B009
:10018C007047404261EB4101002B1BDB00F028F86B
:10019C00DDF804E0DDE9022304B0404261EB4101EB
:1001AC00524263EB43037047524263EB430300F04C
:1001BC0017F8DDF804E0DDE9022304B0404261EBFE
:1001CC0041017047524263EB430300F009F8DDF83C
:1001DC0004E0DDE9022304B0524263EB43037047B1
:1001EC002DE9F047089E0D4604468E46002B40F044
:1001FC0083808A42174647D9B2FA82F34BB1C3F1D6
:10020C00200105FA03FE20FA01F19F4041EA0E0E8F
:10021C009C404FEA1748BEFBF8FC1FFA87F908FB15
:10022C001CE20CFB09F0210C41EA024290420AD973
:10023C00BA180CF1FF3180F01881904240F2158110
:10024C00ACF1020C3A44121AB2FBF8F008FB102283
:10025C0000FB09F1A4B244EA0244A14209D93C19B9
:10026C0000F1FF3280F00381A14240F2008102389C
:10027C003C44641A002140EA0C401EB10022DC40D0
:10028C00C6E90042BDE8F08702B9FFDEB2FA82F39C
:10029C00002B4FD18D1A01214FEA124E1FFA82F812
:1002AC00B5FBFEFC0EFB1C5508FB0CF0220C42EAC5
:1002BC000545A84207D97D190CF1FF3202D2A8429C
:1002CC0000F2E98094462D1AB5FBFEF00EFB10559A
:1002DC0008FB00F8A4B244EA0544A04507D93C1930
:1002EC0000F1FF3202D2A04500F2D9801046A4EBF7
:1002FC00080440EA0C40C0E78B4208D9002E00F0FD
:10030C00B1800021C6E900050846BDE8F087B3FAC4
:10031C0083F100294BD1AB4202D3824200F2B98067
:10032C00841A65EB030301209E46002EAAD0C6E971
:10033C00004EA7E79F40C3F12002D1404FEA174E71
:10034C00B1FBFEF01FFA87F80EFB101124FA02F233
:10035C009D4000FB08FC2A43150C45EA0145AC45C1
:10036C0004FA03F409D97D1900F1FF3180F08F8074
:10037C00AC4540F28C8002383D44A5EB0C05B5FB36
:10038C00FEF10EFB115C01FB08F995B245EA0C4538
:10039C00A94507D97D1901F1FF3274D2A94572D94B
:1003AC0002393D44A5EB090541EA004178E7C1F16A
:1003BC0020078B4022FA07FC4CEA030C25FA07F4C1
:1003CC004FEA1C4EB4FBFEF91FFA8CF80EFB1944D5
:1003DC0020FA07F309FB08FA8D401D432B0C43EA66
:1003EC000444A24502FA01F200FA01F309D91CEB0C
:1003FC00040409F1FF3048D2A24546D9A9F10209FB
:10040C006444A4EB0A04B4FBFEF00EFB104400FBA6
:10041C0008FAADB245EA0444A24508D91CEB040421
:10042C0000F1FF352DD2A2452BD90238644440EAA5
:10043C000940A0FB0289A4EB0A044C45C6464D4674
:10044C0019D316D05EB1B3EB0E0264EB050404FABB
:10045C0007F722FA01F31F43CC40C6E900740021D0
:10046C00BDE8F087314630460CE78C46EBE610468B
:10047C00FFE64345E6D2B8EB020E69EB0C050138FA
:10048C00E0E72846D3E711468CE78146B9E70846F2
:10049C0073E7084649E7ACF1020C3D4413E7023818
:1004AC003C4424E7704700BF80B483B000AF786051
:1004BC00074B1B687A6892FBF3F3064A1360064BF2
:1004CC0000221A6000BF0C37BD4680BC704700BFCD
:1004DC00E0000020C4000020C800002080B400AF61
:1004EC00094B1B68002B0BDD074B1B68013B064AB5
:1004FC001360054B1B68002B02DC044B01221A60B5
:10050C0000BFBD4680BC7047C4000020C80000205E
:10051C0080B58AB000AF786000237B6200233B6219
:10052C000023FB610023BB6100237B6100233B6143
:10053C000023FB607B68092B00F2AE8001A252F80D
:10054C0023F000BF7905000897050008B5050008E1
:10055C00D3050008F10500080F0600082D06000859
:10056C004B060008690600088706000800237B621A
:10057C0000233B620023FB610023BB6100237B61F2
:10058C0000233B610123FB6095E001237B62002388
:10059C003B620023FB610123BB6101237B610123CF
:1005AC003B610123FB6086E000237B6200233B62FE
:1005BC000123FB610023BB6100237B6101233B61B1
:1005CC000023FB6077E000237B6200233B62002367
:1005DC00FB610023BB6101237B6101233B61002391
:1005EC00FB6068E001237B6200233B620023FB611C
:1005FC000123BB6101237B6100233B610023FB6072
:10060C0059E000237B6201233B620023FB61002342
:10061C00BB6101237B6100233B610023FB604AE04B
:10062C0000237B6201233B620023FB610023BB613F
:10063C0000237B6100233B610023FB603BE0002334
:10064C007B6200233B620023FB610123BB6101231E
:10065C007B6101233B610123FB602CE000237B6267
:10066C0000233B620023FB610023BB6100237B6101
:10067C0000233B610023FB601DE000237B62002311
:10068C003B620023FB610023BB6101237B610023E0
:10069C003B610023FB600EE001237B6201233B6284
:1006AC000123FB610123BB6101237B6101233B61BE
:1006BC000123FB6000BF7B6ADBB21A46012118489C
:1006CC0001F0CBFD3B6ADBB21A460221144801F063
:1006DC00C4FDFB69DBB21A460421114801F0BDFDD3
:1006EC00BB69DBB21A4608210D4801F0B6FD7B69E7
:1006FC00DBB21A4610210A4801F0AFFD3B69DBB2B0
:10070C001A462021064801F0A8FDFB68DBB21A4608
:10071C004021034801F0A1FD00BF2837BD4680BD34
:10072C00000C014080B58AB000AF786000237B627A
:10073C0000233B620023FB610023BB6100237B6130
:10074C0000233B610023FB607B68092B00F2AE8029
:10075C0001A252F823F000BF8D070008AB07000878
:10076C00C9070008E7070008050800082308000867
:10077C00410800085F0800087D0800089B08000875
:10078C0000237B6200233B620023FB610023BB61DF
:10079C0000237B6100233B610123FB6095E0012377
:1007AC007B6200233B620023FB610123BB610123BD
:1007BC007B6101233B610123FB6086E000237B62AC
:1007CC0000233B620123FB610023BB6100237B619F
:1007DC0001233B610023FB6077E000237B62002355
:1007EC003B620023FB610023BB6101237B6101237E
:1007FC003B610023FB6068E001237B6200233B62CA
:10080C000023FB610123BB6101237B6100233B615E
:10081C000023FB6059E000237B6201233B62002331
:10082C00FB610023BB6101237B6100233B6100233F
:10083C00FB604AE000237B6201233B620023FB61E7
:10084C000023BB6100237B6100233B610023FB6021
:10085C003BE000237B6200233B620023FB6101230E
:10086C00BB6101237B6101233B610123FB602CE015
:10087C0000237B6200233B620023FB610023BB61EE
:10088C0000237B6100233B610023FB601DE0002300
:10089C007B6200233B620023FB610023BB610123CD
:1008AC007B6100233B610023FB600EE001237B6234
:1008BC0001233B620123FB610123BB6101237B61AB
:1008CC0001233B610123FB6000BF7B6ADBB21A464C
:1008DC0080211B4801F0C1FC3B6ADBB21A464FF485
:1008EC008071174801F0B9FCFB69DBB21A464FF472
:1008FC000071134801F0B1FCBB69DBB21A464FF42E
:10090C0080610F4801F0A9FC7B69DBB21A464FF4F9
:10091C0000610B4801F0A1FC3B69DBB21A464FF4B5
:10092C008051074801F099FCFB68DBB21A464FF482
:10093C000051034801F091FC00BF2837BD4680BD33
:10094C00000C014080B584B000AF78607B68092B47
:10095C001BDD7B68124A82FB03129210DB17D31A41
:10096C00FB607A680E4B83FB02139910D317C91ADC
:10097C000B469B000B445B00D31ABB60F868FFF777
:10098C00C7FDB868FFF7CEFE05E00A20FFF7C0FDF3
:10099C007868FFF7C7FE00BF1037BD4680BD00BFAB
:1009AC006766666680B483B000AF7860074B1B68DF
:1009BC007A6892FBF3F3064A1360064B00221A6026
:1009CC0000BF0C37BD4680BC704700BFE000002064
:1009DC00940000209800002080B400AF0F4B1B68DF
:1009EC00002B17DD0D4B1B68013B0C4A13600B4BA6
:1009FC001B68002B0EDC0A4B01221A60094B1B688A
:100A0C000133084A1360074B1B68032B02D1054BBB
:100A1C0001221A6000BFBD4680BC704794000020C4
:100A2C00980000200000002080B500AFB14B1B687F
:100A3C00013B032B00F2B18201A252F823F000BF5C
:100A4C005D0A0008AB0D0008550E0008FF0E0008EB
:100A5C00A94B1B68012B3DD1A84B1B68012B1BD14B
:100A6C00A74B1B681846FFF76DFF00220221A54813
:100A7C0001F0F3FB00220421A24801F0EEFB01225D
:100A8C004FF400619F4801F0E8FB01224FF48051C4
:100A9C009C4801F0E2FB1AE09B4B1B681846FFF7E1
:100AAC0051FF01220221974801F0D7FB01220421BA
:100ABC00944801F0D2FB00224FF40061914801F000
:100ACC00CCFB00224FF480518E4801F0C6FBFA207B
:100ADC00FFF768FF8D4B1B68012B40F060828C4B3D
:100AEC001B68002B2ED101222021864801F0B5FB7A
:100AFC0000224021834801F0B0FB00228021814874
:100B0C0001F0ABFB804B1B68013B7F4A13607E4BB3
:100B1C001B68002B7BD1002220217A4801F09DFB21
:100B2C0001224021774801F098FB00228021754872
:100B3C0001F093FB764B01221A60764B1B68724ACC
:100B4C00136064E0724B1B68012B2ED10022202114
:100B5C006C4801F082FB012240216A4801F07DFBC8
:100B6C0000228021674801F078FB674B1B68013B32
:100B7C00654A1360644B1B68002B48D1002220216E
:100B8C00604801F06AFB002240215E4801F065FBE1
:100B9C00012280215B4801F060FB5D4B02221A6050
:100BAC005D4B1B68584A136031E0594B1B68022B94
:100BBC002DD100222021534801F04FFB002240216F
:100BCC00504801F04AFB012280214E4801F045FBC0
:100BDC004D4B1B68013B4C4A13604B4B1B68002B65
:100BEC0015D101222021474801F037FB002240217A
:100BFC00444801F032FB00228021424801F02DFBD9
:100C0C00434B00221A60454B1B683F4A1360444B10
:100C1C001B68002B35D101224FF48071394801F04B
:100C2C001CFB00224FF40071364801F016FB002229
:100C3C004FF48061334801F010FB314B1B68013BD2
:100C4C002F4A13602E4B1B68002B40F0A380002210
:100C5C004FF480712B4801F000FB01224FF400711E
:100C6C00284801F0FAFA00224FF48061254801F07F
:100C7C00F4FA2B4B01221A60264B1B68204A136096
:100C8C0088E0274B1B68012B4CD100224FF480715C
:100C9C001C4801F0E2FA01224FF40071194801F0EE
:100CAC00DCFA00224FF48061164801F0D6FA144B9E
:100CBC001B68013B124A1360114B1B68002B69D156
:100CCC0000224FF480710F4801F0C7FA00224FF454
:100CDC0000710C4801F0C1FA01224FF480610948FF
:100CEC0001F0BBFA0E4B02221A600B4B1B68044A34
:100CFC0013604FE0D000002098000020000000207E
:100D0C00140000200008014010000020C800002042
:100D1C009C000020080000200C0000200400002093
:100D2C0018000020A24B1B68022B33D100224FF479
:100D3C008071A04801F091FA00224FF400719D4897
:100D4C0001F08BFA01224FF480619A4801F085FA88
:100D5C00994B1B68013B984A1360974B1B68002BFF
:100D6C0018D101224FF48071924801F076FA0022DA
:100D7C004FF400718F4801F070FA00224FF480613B
:100D8C008C4801F06AFA8A4B00221A608B4B1B6864
:100D9C00894A13604FF47A70FFF786FBFFE0884BAB
:100DAC001B68012B0CD12021824801F06EFA4FF404
:100DBC008071804801F069FA4FF4FA7000F076FC0B
:100DCC00804B1B68012B40F0EC807F4B1B68012B88
:100DDC001BD17E4B1B681846FFF7B4FD0022022185
:100DEC00744801F03AFA00220421724801F035FAF5
:100DFC0001224FF400616F4801F02FFA01224FF4E9
:100E0C0080516C4801F029FA1AE0714B1B681846A6
:100E1C00FFF798FD01220221664801F01EFA01221B
:100E2C000421644801F019FA00224FF40061614872
:100E3C0001F013FA00224FF480515E4801F00DFAD4
:100E4C00FA20FFF7AFFDACE05D4B1B68012B0CD11A
:100E5C004021584801F019FA4FF40071554801F03F
:100E6C0014FA4FF4FA7000F021FC564B1B68012B5E
:100E7C0040F09980544B1B68012B1BD1534B1B68C2
:100E8C001846FFF75FFD002202214A4801F0E5F900
:100E9C0000220421474801F0E0F901224FF40061DF
:100EAC00444801F0DAF901224FF48051414801F035
:100EBC00D4F91AE0474B1B681846FFF743FD012293
:100ECC0002213C4801F0C9F901220421394801F002
:100EDC00C4F900224FF40061364801F0BEF900223B
:100EEC004FF48051334801F0B8F9FA20FFF75AFD5E
:100EFC0059E0334B1B68012B0CD180212D4801F09C
:100F0C00C4F94FF480612B4801F0BFF94FF4FA702B
:100F1C0000F0CCFB2B4B1B68012B46D12A4B1B68DA
:100F2C00012B1BD1294B1B681846FFF70BFD002228
:100F3C000221204801F091F9002204211D4801F002
:100F4C008CF901224FF400611A4801F086F9012254
:100F5C004FF48051174801F080F91AE01E4B1B68C2
:100F6C001846FFF7EFFC01220221124801F075F937
:100F7C00012204210F4801F070F900224FF40061A6
:100F8C000C4801F06AF900224FF48051094801F035
:100F9C0064F9FA20FFF706FD07E000BF06E000BF8A
:100FAC0004E000BF02E000BF00E000BF00BF80BD56
:100FBC00180000200008014014000020040000204C
:100FCC00C000002098000020000000201C00002021
:100FDC0020000020240000202800002080B400AF56
:100FEC00084B00221A60084B01221A60074B1B6841
:100FFC00074A1360074B1B68074A136000BFBD46C6
:10100C0080BC70479C0000201800002004000020C9
:10101C0010000020080000201400002080B500AF54
:10102C006B4B1B78002B02D0012B0AD0CDE000F0CB
:10103C00D5F90346012B40F0C580654B01221A708F
:10104C00C0E0644B1B68013B032B00F2B18001A292
:10105C0052F823F071100008C5100008191100088F
:10106C00691100085B4B02221A60002220215A48A9
:10107C0001F0F3F800224FF48071574801F0EDF8BD
:10108C0000224021544801F0E8F800224FF400718E
:10109C00514801F0E2F8002280214F4801F0DDF8C0
:1010AC0000224FF480614C4801F0D7F84B4B1B6881
:1010BC0001334A4A13607CE0464B04221A6000223A
:1010CC002021454801F0C9F800224FF480714248B4
:1010DC0001F0C3F8002240213F4801F0BEF8002285
:1010EC004FF400713C4801F0B8F8002280213A48D6
:1010FC0001F0B3F800224FF48061374801F0ADF8ED
:10110C00364B1B680133354A136052E0314B0222D7
:10111C001A6000222021304801F09FF800224FF481
:10112C0080712D4801F099F8002240212A4801F0E5
:10113C0094F800224FF40071274801F08EF8002239
:10114C008021254801F089F800224FF48061224863
:10115C0001F083F8214B02221A602AE01D4B032276
:10116C001A60002220211C4801F077F800224FF46D
:10117C008071194801F071F800224021164801F0E5
:10118C006CF800224FF40071134801F066F800224D
:10119C008021114801F061F800224FF480610E4863
:1011AC0001F05BF80D4B1B6801330C4A136000E037
:1011BC0000BF00F013F90346012B05D0044B0022AD
:1011CC001A7001E000BF00E000BF00BF80BD00BF8F
:1011DC00A0000020D0000020000801401C000020CE
:1011EC0080B500AF324B1B78002B02D0012B09D0FD
:1011FC005CE000F069F90346012B54D12C4B012221
:10120C001A7050E02B4B1B68042B2ED0042B40DCA7
:10121C00022B02D0032B14D03BE0274B1B6801336D
:10122C00254A1360244B1A68244B83FB0213591173
:10123C00D317CB1A642101FB03F3D31A1E4A136094
:10124C0028E01F4B1B6801331D4A13601C4B1A68A6
:10125C001A4B83FB02135911D317CB1A642101FBD0
:10126C0003F3D31A164A136014E0164B1B680133B0
:10127C00144A1360134B1A68104B83FB0213591159
:10128C00D317CB1A642101FB03F3D31A0D4A136055
:10129C0000E000BF00F018F90346012B05D0044B09
:1012AC0000221A7001E000BF00E000BF00BF80BD4B
:1012BC00A1000020D0000020200000201F85EB5151
:1012CC00240000202800002080B500AF3A4B1B788A
:1012DC00002B02D0012B09D06BE000F071F9034612
:1012EC00012B63D1344B01221A705FE0334B1B6826
:1012FC00042B1FD0042B4FDC022B02D0032B32D03B
:10130C004AE02F4B1B682F4A13602E4B1B682C4A4C
:10131C0013602D4B1B682D4A13602D4B1B682D4AF7
:10132C001360264B01221A602B4B01221A60FFF727
:10133C0055FE32E0254B1B68234A1360224B1B6879
:10134C00224A13601F4B1B681D4A1360204B1B68FD
:10135C00204A1360194B01221A601F4B01221A609C
:10136C00FFF73CFE19E01B4B1B68194A1360184B26
:10137C001B68184A1360134B1B68114A1360124BFD
:10138C001B68124A13600D4B01221A60124B01228A
:10139C001A60FFF723FE00E000BF00F011F90346CE
:1013AC00012B05D0044B00221A7001E000BF00E0B5
:1013BC0000BF00BF80BD00BFA2000020D0000020F5
:1013CC0020000020040000200C0000202800002039
:1013DC0008000020240000201C00002080B400AF76
:1013EC00064B1B68012B04D1044B00221A6001230D
:1013FC0000E000231846BD4680BC7047A8000020C2
:10140C0080B400AF034B01221A6000BFBD4680BC04
:10141C00704700BFA800002080B500AF234B1B68AD
:10142C00234A1360234B1B68204A13604FF400516E
:10143C00214800F0FBFE03461A461E4B1A601C4B5B
:10144C001A681A4B1B689A422ED1184B1A68194B02
:10145C001B689A4228D1194B1A68164B1B689A4282
:10146C0012D0144B1B68154A1360124B1B68002BCF
:10147C001AD1FFF7C5FF124B1B684FF47A7292FB1F
:10148C00F3F3104A13600FE00E4B1B68002B0BDDBF
:10149C000C4B1B68013B0B4A13600A4B1B68002B5F
:1014AC0002DC064B01221A6000BF80BD3C0000200C
:1014BC0038000020400000200010014044000020B3
:1014CC00E0000020A400002080B400AF064B1B6895
:1014DC00012B04D1044B00221A60012300E00023ED
:1014EC001846BD4680BC7047B000002080B400AFE9
:1014FC00034B01221A6000BFBD4680BC704700BF81
:10150C00B000002080B500AF264B1B68264A136044
:10151C00264B1B68234A13604FF48041244800F08B
:10152C0085FE03461A46214B1A601F4B1A681D4B49
:10153C001B689A4233D11B4B1A681C4B1B689A428E
:10154C002DD11C4B1A68194B1B689A4217D0174B9C
:10155C001B68184A1360154B1B68002B1FD1FFF733
:10156C00C5FF154B1B684FF47A7292FBF3F3002BFB
:10157C0000DA03339B101A46104B1A600FE00F4B26
:10158C001B68002B0BDD0D4B1B68013B0B4A1360DA
:10159C000A4B1B68002B02DC064B01221A6000BFB1
:1015AC0080BD00BF4C0000204800002050000020EF
:1015BC000010014054000020E0000020AC0000208E
:1015CC0080B400AF064B1B68012B04D1044B0022E6
:1015DC001A60012300E000231846BD4680BC70470A
:1015EC00B800002080B400AF034B01221A6000BF8A
:1015FC00BD4680BC704700BFB800002080B500AF6E
:10160C00234B1B68234A1360234B1B68204A13602F
:10161C004FF40041214800F009FE03461A461E4BC8
:10162C001A601C4B1A681A4B1B689A422ED1184B25
:10163C001A68194B1B689A4228D1194B1A68164B19
:10164C001B689A4212D0144B1B68154A1360124B3C
:10165C001B68002B1AD1FFF7C5FF124B1B684FF408
:10166C007A7292FBF3F3104A13600FE00E4B1B6877
:10167C00002B0BDD0C4B1B68013B0B4A13600A4B18
:10168C001B68002B02DC064B01221A6000BF80BDD8
:10169C005C00002058000020600000200010014079
:1016AC0064000020E0000020B400002080B483B06F
:1016BC0000AF7860074B1B687A6892FBF3F3064A1D
:1016CC001360064B00221A6000BF0C37BD4680BC6D
:1016DC00704700BFE0000020BC000020C0000020CC
:1016EC0080B400AF094B1B68002B0BDD074B1B684C
:1016FC00013B064A1360054B1B68002B02DC044BB4
:10170C0001221A6000BFBD4680BC7047BC0000209F
:10171C00C000002080B483B000AF7860074B1B681A
:10172C007A6892FBF3F3064A1360064B00221A60A8
:10173C0000BF0C37BD4680BC704700BFE0000020E6
:10174C00CC000020F000002080B400AF094B1B68D7
:10175C00002B0BDD074B1B68013B064A1360054B46
:10176C001B68002B02DC044B01221A6000BFBD4633
:10177C0080BC7047CC000020F00000202DE9F8431D
:10178C0000AF00F069FA00F097F800F01DF900F0D6
:10179C00CFF8414801F0CAF93F4B5B681A464FF04D
:1017AC0000033E49C1E900233B4BDB681A464FF06E
:1017BC0000033B49C1E900233A4BD3E90001374B05
:1017CC00D3E9002312F1010843F10009344BD3E9AA
:1017DC000023541C43F1000504FB09F208FB05F33C
:1017EC00D618A8FB0423F4182346FEF7A9FC0246DE
:1017FC000B464FF47A704FF00001FEF7A1FC024645
:10180C000B46294B1A60294B01221A604FF47A704F
:10181C00FFF74CFF4FF47A70FFF77CFF4FF47A70B0
:10182C00FEF742FE4FF47A70FFF7BCF8002220213D
:10183C001F4800F012FD00224FF480711C4800F08C
:10184C000CFD002240211A4800F007FD00224FF445
:10185C000071174800F001FD00228021144800F0AF
:10186C00FCFC00224FF48061114800F0F6FCFFF7FD
:10187C00D5FBFFF7B5FCFFF727FDFFF7D5F80D4BB0
:10188C001B68012BF3D10821094800F0FEFC4FF432
:10189C007A70FFF73FFFEAE7F4000020D800002041
:1018AC00E800002030000020E0000020D0000020E4
:1018BC0000080140F000002080B590B000AF07F1A7
:1018CC00180328220021184601F0E8FC3B1D0022D9
:1018DC001A605A609A60DA601A610223BB610123B4
:1018EC00BB621023FB6200237B6307F118031846CD
:1018FC0000F0E4FC0346002B01D000F0D7F80F23D6
:10190C007B600023BB600023FB6000233B61002352
:10191C007B613B1D0021184600F050FF0346002B55
:10192C0001D000F0C3F800BF4037BD4680BD0000B9
:10193C0080B586B000AF07F1080300221A605A6028
:10194C009A60DA603B4600221A605A601D4B4FF0D9
:10195C0080421A601B4B40F21F325A60194B002216
:10196C009A60184B0922DA60164B00221A61154B4B
:10197C0000229A61134801F089F80346002B01D02C
:10198C0000F094F84FF48053BB6007F1080319463C
:10199C000C4801F01FFA0346002B01D000F086F82A
:1019AC0000233B6000237B603B461946054801F051
:1019BC00E7FB0346002B01D000F078F800BF183786
:1019CC00BD4680BDF400002080B588B000AF07F1A3
:1019DC00100300221A605A609A60DA602F4B9B69E0
:1019EC002E4A43F0100393612C4B9B6903F01003B8
:1019FC00FB60FB68294B9B69284A43F00403936105
:101A0C00264B9B6903F00403BB60BB68234B9B69AB
:101A1C00224A43F008039361204B9B6903F00803AF
:101A2C007B607B68002241F6EE711D4800F015FCCE
:101A3C00002243F6FF711B4800F00FFC4FF460438B
:101A4C003B6100237B610123BB6107F11003194645
:101A5C00154800F071FA41F6EE733B6101237B618E
:101A6C000023BB610223FB6107F1100319460C48EC
:101A7C0000F062FA43F6FF733B6101237B610023A4
:101A8C00BB610223FB6107F110031946054800F006
:101A9C0053FA00BF2037BD4680BD00BF0010024086
:101AAC0000080140000C01400010014080B400AF60
:101ABC0072B600BFFEE7000080B485B000AF154BD6
:101ACC009B69144A43F001039361124B9B6903F029
:101ADC000103BB60BB680F4BDB690E4A43F08053BC
:101AEC00D3610C4BDB6903F080537B607B680A4B42
:101AFC005B68FB60FB6823F0E063FB60FB6843F012
:101B0C008063FB60044AFB68536000BF1437BD461A
:101B1C0080BC7047001002400000014080B584B0CA
:101B2C0000AF78607B681B68B3F1804F13D10C4B0E
:101B3C00DB690B4A43F00103D361094BDB6903F00A
:101B4C000103FB60FB68002200211C2000F0BDF9A2
:101B5C001C2000F0D6F900BF1037BD4680BD00BF79
:101B6C000010024080B400AFFEE780B400AFFEE787
:101B7C0080B400AFFEE780B400AFFEE780B400AFE6
:101B8C00FEE780B400AF00BFBD4680BC704780B498
:101B9C0000AF00BFBD4680BC704780B400AF00BF33
:101BAC00BD4680BC704780B500AF00F09BF800BF0D
:101BBC0080BD000080B500AF024801F003F800BF03
:101BCC0080BD00BFF400002080B400AF00BFBD4654
:101BDC0080BC704780B582B000AF78607B681B68B2
:101BEC00B3F1804F0DD1FFF717FCFFF78BFCFFF71C
:101BFC0005FDFFF775FDFFF7A7FDFEF76FFCFEF780
:101C0C00EBFE00BF0837BD4680BD00000C480D49F7
:101C1C000D4A002302E0D458C4500433C4188C423B
:101C2C00F9D30A4A0A4C002301E013600432A242A1
:101C3C00FBD3FFF7C9FF01F00DFBFFF79FFD7047CA
:101C4C000000002074000020003300087800002001
:101C5C0040010020FEE7000080B500AF084B1B6878
:101C6C00074A43F010031360032000F023F90F2000
:101C7C0000F008F8FFF720FF0023184680BD00BFD6
:101C8C000020024080B582B000AF7860124B1A6819
:101C9C00124B1B7819464FF47A73B3FBF1F3B2FB7A
:101CAC00F3F3184600F03BF90346002B01D0012357
:101CBC000EE07B680F2B0AD8002279684FF0FF30BA
:101CCC0000F003F9064A7B681360002300E001234F
:101CDC0018460837BD4680BD680000207000002003
:101CEC006C00002080B400AF054B1B781A46054BE6
:101CFC001B681344034A136000BFBD4680BC704789
:101D0C00700000203C01002080B400AF024B1B6827
:101D1C001846BD4680BC70473C01002080B485B09D
:101D2C0000AF78607B6803F00703FB600C4BDB684B
:101D3C00BB60BA684FF6FF031340BB60FB681A0226
:101D4C00BB68134343F0BF6343F40033BB60044AE6
:101D5C00BB68D36000BF1437BD4680BC704700BF62
:101D6C0000ED00E080B400AF044BDB681B0A03F00D
:101D7C0007031846BD4680BC704700BF00ED00E06D
:101D8C0080B483B000AF0346FB7197F90730002B8A
:101D9C000BDBFB7903F01F02064997F907305B094F
:101DAC00012000FA02F241F8232000BF0C37BD4697
:101DBC0080BC704700E100E080B483B000AF034604
:101DCC003960FB7197F90730002B0ADB3B68DAB2FC
:101DDC000C4997F907301201D2B20B4483F8002357
:101DEC000AE03B68DAB20849FB7903F00F03043BC5
:101DFC001201D2B20B441A7600BF0C37BD4680BC20
:101E0C00704700BF00E100E000ED00E080B489B055
:101E1C0000AFF860B9607A60FB6803F00703FB6100
:101E2C00FB69C3F10703042B28BF0423BB61FB69C7
:101E3C000433062B02D9FB69033B00E000237B61D2
:101E4C004FF0FF32BB6902FA03F3DA43BB681A4066
:101E5C007B699A404FF0FF317B6901FA03F3D94358
:101E6C007B680B40134318462437BD4680BC704733
:101E7C0080B582B000AF78607B68013BB3F1807FA6
:101E8C0001D301230FE00A4A7B68013B53600F2109
:101E9C004FF0FF30FFF790FF054B00229A60044B88
:101EAC0007221A60002318460837BD4680BD00BFC4
:101EBC0010E000E080B582B000AF78607868FFF782
:101ECC002DFF00BF0837BD4680BD80B586B000AF82
:101EDC000346B9607A60FB7300237B61FFF742FF16
:101EEC0078617A68B9687869FFF790FF024697F9CC
:101EFC000F3011461846FFF75FFF00BF1837BD467D
:101F0C0080BD80B582B000AF0346FB7197F90730F6
:101F1C001846FFF735FF00BF0837BD4680BD80B5BA
:101F2C0082B000AF78607868FFF7A2FF03461846CE
:101F3C000837BD4680BD000080B48BB000AF786020
:101F4C00396000237B6200233B6248E101227B6AFB
:101F5C0002FA03F3FB613B681B68FA691340BB612F
:101F6C00BA69FB699A4240F037813B685B68A34AC7
:101F7C0093425ED0A14A934275D8A14A934258D05D
:101F8C009F4A93426FD89F4A934252D09D4A9342A4
:101F9C0069D89D4A93424CD09B4A934263D89B4A42
:101FAC00934246D0994A93425DD8122B2AD8122BD1
:101FBC0059D801A252F823F03F200008192000083C
:101FCC002B2000086D2000087320000873200008E7
:101FDC007320000873200008732000087320000889
:101FEC007320000873200008732000087320000879
:101FFC0073200008732000087320000821200008BB
:10200C0035200008824A934213D02CE03B68DB68F1
:10201C003B6229E03B68DB6804333B6224E03B68AD
:10202C00DB6808333B621FE03B68DB680C333B62C8
:10203C001AE03B689B68002B02D104233B6213E03F
:10204C003B689B68012B05D108233B627B68FA69CE
:10205C001A6109E008233B627B68FA695A6103E064
:10206C0000233B6200E000BFBB69FF2B01D87B68FB
:10207C0001E07B6804337B61BB69FF2B02D87B6A70
:10208C009B0002E07B6A083B9B003B617B691A6802
:10209C000F213B6901FA03F3DB431A40396A3B69B0
:1020AC0001FA03F31A437B691A603B685B6803F01F
:1020BC008053002B00F09080564B9B69554A43F09F
:1020CC0001039361534B9B6903F00103BB60BB6835
:1020DC00514A7B6A9B08023352F82330FB607B6ABF
:1020EC0003F003039B000F2202FA03F3DB43FA68AD
:1020FC001340FB607B68494A93420DD07B68484A89
:10210C00934207D07B68474A934201D1022304E0F3
:10211C00032302E0012300E000237A6A02F00302A9
:10212C0092009340FA681343FB603B497B6A9B081F
:10213C000233FA6841F823203B685B6803F4803370
:10214C00002B06D0384B1A683749BB6913430B6018
:10215C0006E0354B1A68BB69DB43334913400B600F
:10216C003B685B6803F40033002B06D02E4B5A6897
:10217C002D49BB6913434B6006E02B4B5A68BB6976
:10218C00DB43294913404B603B685B6803F48013C5
:10219C00002B06D0244B9A682349BB6913438B60F0
:1021AC0006E0214B9A68BB69DB431F4913408B60E7
:1021BC003B685B6803F40013002B06D01A4BDA68FB
:1021CC001949BB691343CB6006E0174BDA68BB694E
:1021DC00DB4315491340CB607B6A01337B623B6860
:1021EC001A687B6A22FA03F3002B7FF4AFAE00BFB0
:1021FC0000BF2C37BD4680BC704700BF00003210BA
:10220C0000003110000022100000211000001210FC
:10221C0000001110001002400000014000080140B5
:10222C00000C0140001001400004014080B485B056
:10223C0000AF78600B467B807B689A687B88134084
:10224C00002B02D00123FB7301E00023FB73FB7B0B
:10225C0018461437BD4680BC704780B483B000AFBD
:10226C0078600B467B8013467B707B78002B03D009
:10227C007A887B681A6103E07B881A047B681A6190
:10228C0000BF0C37BD4680BC704780B485B000AF32
:10229C0078600B467B807B68DB68FB607A88FB6828
:1022AC0013401A04FB68D9437B880B401A437B68A4
:1022BC001A6100BF1437BD4680BC704780B586B02C
:1022CC0000AF78607B68002B01D101236CE27B6846
:1022DC001B6803F00103002B00F08780924B5B68B6
:1022EC0003F00C03042B0CD08F4B5B6803F00C0336
:1022FC00082B12D18C4B5B6803F48033B3F5803F11
:10230C000BD1894B1B6803F40033002B6CD07B681A
:10231C005B68002B68D1012346E27B685B68B3F5F0
:10232C00803F06D1804B1B687F4A43F48033136097
:10233C002EE07B685B68002B0CD17B4B1B687A4AC8
:10234C0023F480331360784B1B68774A23F4802383
:10235C0013601DE07B685B68B3F5A02F0CD1724B4A
:10236C001B68714A43F4802313606F4B1B686E4AE1
:10237C0043F4803313600BE06B4B1B686A4A23F405
:10238C0080331360684B1B68674A23F48023136007
:10239C007B685B68002B13D0FFF7B6FC386108E054
:1023AC00FFF7B2FC02463B69D31A642B01D9032315
:1023BC00FAE15D4B1B6803F40033002BF0D014E002
:1023CC00FFF7A2FC386108E0FFF79EFC02463B6970
:1023DC00D31A642B01D90323E6E1534B1B6803F496
:1023EC000033002BF0D100E000BF7B681B6803F0CA
:1023FC000203002B63D04C4B5B6803F00C03002BE7
:10240C000BD0494B5B6803F00C03082B1CD1464BDB
:10241C005B6803F48033002B16D1434B1B6803F02D
:10242C000203002B05D07B681B69012B01D0012313
:10243C00BAE13D4B1B6823F0F8027B685B69DB005B
:10244C00394913430B603AE07B681B69002B20D0A1
:10245C00364B01221A60FFF757FC386108E0FFF792
:10246C0053FC02463B69D31A022B01D903239BE18F
:10247C002D4B1B6803F00203002BF0D02A4B1B687A
:10248C0023F0F8027B685B69DB00274913430B6080
:10249C0015E0264B00221A60FFF736FC386108E085
:1024AC00FFF732FC02463B69D31A022B01D90323F6
:1024BC007AE11D4B1B6803F00203002BF0D17B6803
:1024CC001B6803F00803002B3AD07B689B69002B38
:1024DC0019D0174B01221A60FFF716FC386108E07F
:1024EC00FFF712FC02463B69D31A022B01D90323D6
:1024FC005AE10D4B5B6A03F00203002BF0D0012074
:10250C0000F0A6FA1CE00A4B00221A60FFF7FCFB55
:10251C0038610FE0FFF7F8FB02463B69D31A022B38
:10252C0008D9032340E100BF0010024000004242E2
:10253C00800442429E4B5B6A03F00203002BE9D1FC
:10254C007B681B6803F00403002B00F0A6800023BB
:10255C00FB75974BDB6903F08053002B0DD1944B2B
:10256C00DB69934A43F08053D361914BDB6903F0F1
:10257C008053BB60BB680123FB758E4B1B6803F457
:10258C008073002B18D18B4B1B688A4A43F48073E1
:10259C001360FFF7B9FB386108E0FFF7B5FB0246A3
:1025AC003B69D31A642B01D90323FDE0814B1B68D3
:1025BC0003F48073002BF0D07B68DB68012B06D111
:1025CC007B4B1B6A7A4A43F0010313622DE07B6854
:1025DC00DB68002B0CD1764B1B6A754A23F0010388
:1025EC001362734B1B6A724A23F0040313621CE0E0
:1025FC007B68DB68052B0CD16D4B1B6A6C4A43F076
:10260C00040313626A4B1B6A694A43F001031362A9
:10261C000BE0674B1B6A664A23F001031362644BA1
:10262C001B6A634A23F0040313627B68DB68002B8C
:10263C0015D0FFF769FB38610AE0FFF765FB02462E
:10264C003B69D31A41F28832934201D90323ABE0A0
:10265C00574B1B6A03F00203002BEED014E0FFF77C
:10266C0053FB38610AE0FFF74FFB02463B69D31A74
:10267C0041F28832934201D9032395E04C4B1B6AFB
:10268C0003F00203002BEED1FB7D012B05D1484B4F
:10269C00DB69474A23F08053D3617B68DB69002BED
:1026AC0000F08180424B5B6803F00C03082B61D077
:1026BC007B68DB69022B46D13F4B00221A60FFF787
:1026CC0023FB386108E0FFF71FFB02463B69D31A76
:1026DC00022B01D9032367E0354B1B6803F0007311
:1026EC00002BF0D17B681B6AB3F5803F08D1304BCF
:1026FC005B6823F400327B689B682D4913434B6065
:10270C002B4B5B6823F474127B68196A7B685B6AD9
:10271C000B43274913434B60274B01221A60FFF7E9
:10272C00F3FA386108E0FFF7EFFA02463B69D31A77
:10273C00022B01D9032337E01D4B1B6803F00073F8
:10274C00002BF0D02FE01C4B00221A60FFF7DCFAB4
:10275C00386108E0FFF7D8FA02463B69D31A022B1E
:10276C0001D9032320E0124B1B6803F00073002BEC
:10277C00F0D118E07B68DB69012B01D1012313E058
:10278C000B4B5B68FB60FB6803F480327B681B6A55
:10279C009A4206D1FB6803F470127B685B6A9A421A
:1027AC0001D0012300E0002318461837BD4680BD38
:1027BC0000100240007000406000424280B584B0BE
:1027CC0000AF786039607B68002B01D10123D0E029
:1027DC006A4B1B6803F007033A689A4210D9674B9F
:1027EC001B6823F0070265493B6813430B60634B7E
:1027FC001B6803F007033A689A4201D00123B8E042
:10280C007B681B6803F00203002B20D07B681B68DD
:10281C0003F00403002B05D0594B5B68584A43F472
:10282C00E06353607B681B6803F00803002B05D042
:10283C00534B5B68524A43F460535360504B5B6894
:10284C0023F0F0027B689B684D4913434B607B6817
:10285C001B6803F00103002B40D07B685B68012BE5
:10286C0007D1474B1B6803F40033002B15D1012310
:10287C007FE07B685B68022B07D1414B1B6803F040
:10288C000073002B09D1012373E03D4B1B6803F04F
:10289C000203002B01D101236BE0394B5B6823F061
:1028AC0003027B685B68364913434B60FFF72CFAD5
:1028BC00F8600AE0FFF728FA0246FB68D31A41F2E7
:1028CC008832934201D9032353E02D4B5B6803F00C
:1028DC000C027B685B689B009A42EBD1274B1B6810
:1028EC0003F007033A689A4210D2244B1B6823F07A
:1028FC00070222493B6813430B60204B1B6803F013
:10290C0007033A689A4201D0012332E07B681B68C6
:10291C0003F00403002B08D0194B5B6823F4E0622E
:10292C007B68DB68164913434B607B681B6803F0BC
:10293C000803002B09D0124B5B6823F460527B68B0
:10294C001B69DB000E4913434B6000F021F8024673
:10295C000B4B5B681B0903F00F030A49CB5C22FA93
:10296C0003F3094A1360094B1B681846FFF78AF9F1
:10297C00002318461037BD4680BD00BF0020024022
:10298C0000100240E0320008680000206C000020BB
:10299C0090B48AB000AF2A4B3C1D0FCB84E80F00DB
:1029AC0040F201233B800023FB610023BB61002329
:1029BC007B6200237B6100233B62224B5B68FB61E3
:1029CC00FB6903F00C03042B02D0082B03D02DE081
:1029DC001D4B3B622DE0FB699B0C03F00F0307F1D1
:1029EC002802134413F8243C7B61FB6903F4803305
:1029FC00002B13D0134B5B685B0C03F0010307F146
:102A0C002802134413F8283CBB617B690E4A02FB75
:102A1C0003F2BB69B2FBF3F37B6204E07B690B4A04
:102A2C0002FB03F37B627B6A3B6202E0064B3B6278
:102A3C0000BF3B6A18462837BD4690BC704700BFA4
:102A4C00D03200080010024000127A0000093D004C
:102A5C0080B485B000AF78600A4B1B680A4AA2FBB1
:102A6C0003235B0A7A6802FB03F3FB6000BFFB687D
:102A7C005A1EFA60002BF9D100BF00BF1437BD46B7
:102A8C0080BC704768000020D34D621080B582B0C6
:102A9C0000AF78607B68002B01D1012341E07B689B
:102AAC0093F83D30DBB2002B06D17B68002283F813
:102ABC003C207868FFF732F87B68022283F83D20CF
:102ACC007B681A687B6804331946104600F06AFA72
:102ADC007B68012283F846207B68012283F83E2024
:102AEC007B68012283F83F207B68012283F8402019
:102AFC007B68012283F841207B68012283F8422005
:102B0C007B68012283F843207B68012283F84420F0
:102B1C007B68012283F845207B68012283F83D20E5
:102B2C00002318460837BD4680BD000080B485B030
:102B3C0000AF78607B6893F83D30DBB2012B01D09D
:102B4C00012335E07B68022283F83D207B681B68FB
:102B5C00DA687B681B6842F00102DA607B681B68EC
:102B6C00164A934209D07B681B68B3F1804F04D09E
:102B7C007B681B68124A934211D17B681B689B6867
:102B8C0003F00703FB60FB68062B10D07B681B6807
:102B9C001A687B681B6842F001021A6007E07B68C8
:102BAC001B681A687B681B6842F001021A600023DC
:102BBC0018461437BD4680BC704700BF002C01403E
:102BCC000004004080B582B000AF78607B681B6861
:102BDC001B6903F00203022B22D17B681B68DB68A4
:102BEC0003F00203022B1BD17B681B686FF00202FF
:102BFC001A617B6801221A777B681B689B6903F05A
:102C0C000303002B03D0786800F0B1F905E0786875
:102C1C0000F0A4F9786800F0B3F97B6800221A7709
:102C2C007B681B681B6903F00403042B22D17B68AF
:102C3C001B68DB6803F00403042B1BD17B681B6847
:102C4C006FF004021A617B6802221A777B681B689A
:102C5C009B6903F44073002B03D0786800F087F96C
:102C6C0005E0786800F07AF9786800F089F97B68FB
:102C7C0000221A777B681B681B6903F00803082B7A
:102C8C0022D17B681B68DB6803F00803082B1BD17F
:102C9C007B681B686FF008021A617B6804221A7744
:102CAC007B681B68DB6903F00303002B03D0786897
:102CBC0000F05DF905E0786800F050F9786800F0F4
:102CCC005FF97B6800221A777B681B681B6903F02D
:102CDC001003102B22D17B681B68DB6803F01003F8
:102CEC00102B1BD17B681B686FF010021A617B687C
:102CFC0008221A777B681B68DB6903F44073002B8E
:102D0C0003D0786800F033F905E0786800F026F914
:102D1C00786800F035F97B6800221A777B681B68AD
:102D2C001B6903F00103012B0ED17B681B68DB6868
:102D3C0003F00103012B07D17B681B686FF00102C4
:102D4C001A617868FEF746FF7B681B681B6903F005
:102D5C008003802B0ED17B681B68DB6803F080033B
:102D6C00802B07D17B681B686FF080021A61786832
:102D7C0000F067FA7B681B681B6903F04003402B6B
:102D8C000ED17B681B68DB6803F04003402B07D136
:102D9C007B681B686FF040021A61786800F0F9F8E4
:102DAC007B681B681B6903F02003202B0ED17B680A
:102DBC001B68DB6803F02003202B07D17B681B68A2
:102DCC006FF020021A61786800F032FA00BF083701
:102DDC00BD4680BD80B584B000AF786039607B683B
:102DEC0093F83C30012B01D10223B3E07B68012224
:102DFC0083F83C207B68022283F83D207B681B68AB
:102E0C009B68FB60FB6823F07703FB60FB6823F493
:102E1C007F43FB607B681B68FA689A603B681B68A1
:102E2C00B3F5005F3ED0B3F5005F00F28780B3F5D9
:102E3C00805F00F08580B3F5805F7FD8702B1AD04F
:102E4C00702B7BD8602B50D0602B77D8502B3CD07C
:102E5C00502B73D8402B58D0402B6FD8302B64D0CC
:102E6C00302B6BD8202B60D0202B67D8002B5CD05C
:102E7C00102B5AD062E07B6818683B6899683B68F5
:102E8C005A683B68DB6800F05CF97B681B689B68E0
:102E9C00FB60FB6843F07703FB607B681B68FA6898
:102EAC009A604EE07B6818683B6899683B685A6882
:102EBC003B68DB6800F045F97B681B689A687B68A7
:102ECC001B6842F480429A603BE07B6818683B6860
:102EDC0059683B68DB681A4600F0BCF87B681B68D5
:102EEC005021184600F013F92BE07B6818683B68FA
:102EFC0059683B68DB681A4600F0DAF87B681B6897
:102F0C006021184600F003F91BE07B6818683B68E9
:102F1C0059683B68DB681A4600F09CF87B681B68B4
:102F2C004021184600F0F3F80BE07B681A683B6808
:102F3C001B681946104600F0EAF802E000BF00E0FA
:102F4C0000BF7B68012283F83D207B68002283F858
:102F5C003C20002318461037BD4680BD80B483B09A
:102F6C0000AF786000BF0C37BD4680BC704780B4A2
:102F7C0083B000AF786000BF0C37BD4680BC704793
:102F8C0080B483B000AF786000BF0C37BD4680BC06
:102F9C00704780B483B000AF786000BF0C37BD467B
:102FAC0080BC704780B485B000AF786039607B68B6
:102FBC001B68FB607B68254A934207D07B68B3F1A2
:102FCC00804F03D07B68224A934208D1FB6823F0E0
:102FDC007003FB603B685B68FA681343FB607B68BB
:102FEC001A4A934207D07B68B3F1804F03D07B68B9
:102FFC00174A934208D1FB6823F44073FB603B688B
:10300C00DB68FA681343FB60FB6823F080023B68C3
:10301C005B691343FB607B68FA681A603B689A68CB
:10302C007B68DA623B681A687B689A627B68074A3D
:10303C00934203D13B681A697B681A637B6801224F
:10304C005A6100BF1437BD4680BC7047002C01404C
:10305C000004004080B487B000AFF860B9607A60BB
:10306C00FB681B6A7B61FB681B6A23F00102FB682F
:10307C001A62FB689B693B613B6923F0F0033B617F
:10308C007B681B013A6913433B617B6923F00A039C
:10309C007B617A69BB6813437B61FB683A699A610F
:1030AC00FB687A691A6200BF1C37BD4680BC70474A
:1030BC0080B487B000AFF860B9607A60FB681B6AB7
:1030CC0023F01002FB681A62FB689B697B61FB684A
:1030DC001B6A3B617B6923F470437B617B681B0338
:1030EC007A6913437B613B6923F0A0033B61BB68A6
:1030FC001B013A6913433B61FB687A699A61FB686F
:10310C003A691A6200BF1C37BD4680BC704780B458
:10311C0085B000AF786039607B689B68FB60FB68AA
:10312C0023F07003FB603A68FB68134343F007031A
:10313C00FB607B68FA689A6000BF1437BD4680BCA0
:10314C00704780B487B000AFF860B9607A603B60BC
:10315C00FB689B687B617B6923F47F437B613B68E5
:10316C001A027B681A43BB6813437A6913437B6169
:10317C00FB687A699A6000BF1C37BD4680BC7047FB
:10318C0080B485B000AF786039607B6893F83C30D0
:10319C00012B01D1022341E07B68012283F83C2002
:1031AC007B68022283F83D207B681B685B68FB60B0
:1031BC007B681B689B68BB60FB6823F07003FB603B
:1031CC003B681B68FA681343FB607B681B68FA68F2
:1031DC005A607B681B68144A934209D07B681B6851
:1031EC00B3F1804F04D07B681B68104A93420CD11A
:1031FC00BB6823F08003BB603B685B68BA68134311
:10320C00BB607B681B68BA689A607B68012283F894
:10321C003D207B68002283F83C200023184614379D
:10322C00BD4680BC704700BF002C0140000400402C
:10323C0080B483B000AF786000BF0C37BD4680BC53
:10324C00704780B483B000AF786000BF0C37BD46C8
:10325C0080BC704770B500260C4D0D4C641BA4103F
:10326C00A64209D100F022F800260A4D0A4C641B34
:10327C00A410A64205D170BD55F8043B9847013601
:10328C00EEE755F8043B98470136F2E7F8320008B0
:10329C00F8320008F8320008FC32000803460244F9
:1032AC00934200D1704703F8011BF9E7F8B500BF52
:1032BC00F8BC08BC9E467047F8B500BFF8BC08BC0B
:0432CC009E46704763
:1032D00002030405060708090A0B0C0D0E0F101057
:1032E00000000000000000000102030406070809B6
:0832F000FCCEFF7F010000008D
:0432F8003101000898
:0432FC000D010008B8
:1033000001000000050000000300000002000000B2
:1033100005000000030000000100000001000000A3
:103320000500000003000000020000000000000093
:1033300000127A00000000000100000001000000FF
:103340000100000001000000010000000100000079
:103350000100000001000000010000000100000069
:1033600001000000010000000024F4001000000033
:043370000100000058
:0400000508001C19BA
:00000001FF
